:100000000C9462000C948A000C948A000C948A0070
:100010000C948A000C948A000C948A000C948A0038
:100020000C948A000C948A000C948A000C94F303BC
:100030000C948A000C948A000C948A000C948A0018
:100040000C94A9030C948A000C948A000C948A00E6
:100050000C948A000C948A000C948A000C948A00F8
:100060000C948A000C948A000000000024002700F1
:100070002A0000000000250028002B0000000008D6
:10008000000201000003040700000000000000005F
:1000900000000000230026002900040404040404D6
:1000A0000404020202020202030303030303010227
:1000B00004081020408001020408102001020408F6
:1000C0001020830711241FBECFEFD8E0DEBFCDBFC5
:1000D00011E0A0E0B1E0E0EEF2E102C005900D9287
:1000E000A833B107D9F721E0A8E3B1E001C01D9220
:1000F000AA38B207E1F710E0C2E6D0E004C02197C9
:10010000FE010E946809C136D107C9F70E94F404B4
:100110000C946E090C940000CF92DF92EF92FF9244
:10012000DC01A03282E0B807D4F5A53BB10514F09C
:10013000A4EBB0E04091700128E830E0241B3109C5
:1001400047FD3395220F331F220F331F6901330FF1
:10015000EE08FF084091710128E532E0241B3109C7
:1001600047FD3395220F331F220F331F032E000C40
:10017000440B550B2C193D094E095F09B7FF02C00E
:10018000B0E0A0E00E94F20724EB30E040E050E055
:100190000E94C807C20ED31EE41EF51ED601E091D0
:1001A0006F01EC3080F52091700188E890E0821BAF
:1001B000910927FD9395880F991F880F991FA817FC
:1001C000B90784F02091710188E592E0821B9109C2
:1001D00027FD9395880F991F880F991FA817B907B6
:1001E0000CF4CD010297880F991F4FB7F8942E2F6A
:1001F00030E0F901EE0FFF1FE20FF31FE55BFE4F4A
:10020000928381834FBFFF90EF90DF90CF9008954E
:10021000AF92BF92CF92DF92EF92FF920F931F9314
:10022000CF93DF936C017B018B01040F151FEB0152
:100230005E01AE18BF08C017D10759F06991D60109
:10024000ED91FC910190F081E02DC6010995892B7B
:1002500079F7C501DF91CF911F910F91FF90EF903A
:10026000DF90CF90BF90AF90089590E0FC01E458EC
:10027000FF4F2491FC01E255FF4F3491FC01E656FB
:10028000FF4FE491EE23C9F0222339F0233001F12E
:10029000A8F4213019F1223029F1F0E0EE0FFF1F10
:1002A000EE58FF4FA591B4918FB7F894EC9161117E
:1002B00026C030953E233C938FBF08952730A9F088
:1002C0002830C9F0243049F7809180008F7D03C029
:1002D000809180008F7780938000DFCF84B58F7707
:1002E00084BDDBCF84B58F7DFBCF8091B0008F774D
:1002F0008093B000D2CF8091B0008F7DF9CF3E2B9C
:10030000DACFCF93DF9390E0FC01E255FF4F2491C9
:1003100086569F4FFC0184918823D1F090E0880F8E
:10032000991FFC01E859FF4FA591B491FC01EE58CB
:10033000FF4FC591D49161110EC09FB7F8948C9175
:10034000E22FE0958E238C932881E223E8839FBFE0
:10035000DF91CF9108958FB7F894EC91E22BEC9355
:100360008FBFF6CF3FB7F89480913F019091400145
:10037000A0914101B091420126B5A89B05C02F3F35
:1003800019F00196A11DB11D3FBFBA2FA92F982FBB
:100390008827BC01CD01620F711D811D911D42E0B6
:1003A000660F771F881F991F4A95D1F708958F927E
:1003B0009F92AF92BF92CF92DF92EF92FF924B014A
:1003C0005C010E94B2016B017C010E94B2016C19B8
:1003D0007D098E099F09683E734081059105A8F348
:1003E00021E0821A9108A108B10888EEC80E83E0C6
:1003F000D81EE11CF11C81149104A104B10429F759
:10040000FF90EF90DF90CF90BF90AF909F908F9034
:100410000895089590E080E00895FC010190002087
:10042000E9F73197AF01481B590BBC0182E791E016
:100430000C9408018F929F92AF92BF920F931F93DB
:10044000CF93DF93CDB7DEB7A1970FB6F894DEBF99
:100450000FBECDBF19A2423008F44AE08E010F5DF5
:100460001F4F842E912CB12CA12CA50194010E9428
:10047000FA07E62FB901CA01EA30F4F4E05DD801C9
:10048000EE938D01232B242B252B79F790E080E030
:10049000109719F0CD010E940D02A1960FB6F894A5
:1004A000DEBF0FBECDBFDF91CF911F910F91BF90E7
:1004B000AF909F908F900895E95CE1CFCF93DF9349
:1004C000EC0160E08E810E94350161E08E810E9426
:1004D000350160E08E810E9435018BE891E0019743
:1004E000F1F7DF91CF910895CF92DF92EF92FF92D3
:1004F0000F931F93CF93DF936C017C0187E0E80E8D
:10050000F11CD0E0C0E0062F10E0B8010C2E02C0B4
:10051000759567950A94E2F76170F70181917F0103
:100520000E9435012196C430D10579F7C601DF91CB
:10053000CF911F910F91FF90EF90DF90CF900C948F
:100540005E02CF92DF92EF92FF920F931F93CF93B1
:10055000DF93EC01F62E642F8C810E9435018D8192
:100560008F3F19F060E00E9435010F2D10E08F855C
:1005700084FF25C06E0187E0C80ED11CF12CE12C50
:10058000B8010E2C02C0759567950A94E2F7617068
:10059000F60181916F010E943501FFEFEF1AFF0A0A
:1005A00088E0E816F10461F7CE01DF91CF911F9149
:1005B0000F91FF90EF90DF90CF900C945E02B80106
:1005C00084E0759567958A95E1F7CE010E947402E3
:1005D0006F2DCE01DF91CF911F910F91FF90EF9082
:1005E000DF90CF900C94740240E0682F82E791E096
:1005F0000C94A10281E00E94F4028BE39FE1019739
:10060000F1F70895CF93DF93823029F4909181011F
:10061000986090938101809385011092860180E417
:100620008093870180E18093880180E58093890130
:1006300061E0809176010E948101809177018F3F76
:1006400019F061E00E94810161E0809178010E94CF
:100650008101C2E7D1E09E012257314080918101A2
:1006600084FD0BC084E090E021962817390744F4FC
:1006700061E08E810E948101EECF88E090E0F4CFAE
:100680008BE39DE00197F1F760E0809176010E9495
:10069000350160E0809178010E94350180917701F9
:1006A0008F3F19F060E00E9435018091810184FD47
:1006B00034C063E082E791E00E947402CBE4D6E4A8
:1006C000CE010197F1F763E082E791E00E947402A6
:1006D0002197F1F763E082E791E00E94740283E5DD
:1006E00092E00197F1F762E082E791E00E947402E4
:1006F0008091810180620E94F40284E080938201F3
:100700008CE00E94F4020E94FA0282E0809383014E
:1007100086E0DF91CF910C94F40280620E94F40293
:100720008BE496E40197F1F78091810180620E9449
:10073000F40283E592E00197F1F7809181018062F4
:100740000E94F402D5CF41E00E94A10281E090E036
:1007500008951F920F920FB60F9211242F933F937B
:100760008F939F93AF93BF9380913B0190913C01F6
:10077000A0913D01B0913E0130913A0123E0230F59
:100780002D3758F50196A11DB11D20933A01809394
:100790003B0190933C01A0933D01B0933E018091B9
:1007A0003F0190914001A0914101B0914201019619
:1007B000A11DB11D80933F0190934001A093410181
:1007C000B0934201BF91AF919F918F913F912F9133
:1007D0000F900FBE0F901F90189526E8230F0296DA
:1007E000A11DB11DD2CF1F920F920FB60F921124EF
:1007F0002F933F934F935F936F937F938F939F9329
:10080000AF93BF93CF93DF93EF93FF938091390121
:10081000C0913801D0E087FF24C01092850010926B
:100820008400809139018F5F809339018091390173
:10083000082E000C990B8C179D0724F48091390128
:100840008C30C4F1809184009091850004968034AE
:100850009C4908F47AC080918400909185000496A8
:1008600076C080913901082E000C990B8C179D07DA
:10087000C4F6E09139018E2FEE0F990BFC01EE0FBB
:10088000FF1FE80FF91FE55BFE4F808186FFC9CF90
:10089000E09139018E2FEE0F990BFC01EE0FFF1F37
:1008A000E80FF91FE55BFE4F808160E08F730E94C7
:1008B0003501B7CF2091840030918500E091390156
:1008C0008E2FEE0F990BFC01EE0FFF1FE80FF91FA3
:1008D000E55BFE4F81819281820F931F9093890087
:1008E00080938800E09139018E2FEE0F990BFC0167
:1008F000EE0FFF1FE80FF91FE55BFE4F808186FFBB
:1009000011C0E09139018E2FEE0F990BFC01EE0F13
:10091000FF1FE80FF91FE55BFE4F808161E08F73D9
:100920000E943501FF91EF91DF91CF91BF91AF917F
:100930009F918F917F916F915F914F913F912F91F7
:100940000F900FBE0F901F90189580E49CE9909334
:100950008900809388008FEF80933901E3CFCF9295
:10096000DF92EF92FF920F931F93E82FF92F05C0AC
:10097000015011092109310961F1908196239417E1
:10098000B9F305C0015011092109310911F1908114
:1009900096239413F7CFC12CD12CE12CF12C0AC053
:1009A0008FEFC81AD80AE80AF80A0C151D052E059B
:1009B0003F0579F080818623841791F36C2D7D2D7E
:1009C0008E2D9F2D1F910F91FF90EF90DF90CF9074
:1009D000089560E070E080E090E01F910F91FF903B
:1009E000EF90DF90CF900895789484B5826084BDB5
:1009F00084B5816084BD85B5826085BD85B5816023
:100A000085BD80916E00816080936E0010928100A0
:100A1000809181008260809381008091810081605B
:100A2000809381008091800081608093800080911C
:100A3000B10084608093B1008091B00081608093A8
:100A4000B00080917A00846080937A0080917A006F
:100A5000826080937A0080917A00816080937A002E
:100A600080917A00806880937A001092C100809112
:100A70006F018C3008F051C061E08BE00E94810171
:100A800080916F01282F30E0F901EE0FFF1FE20F78
:100A9000F31FE55BFE4F9081907C9B6090831092EA
:100AA0007001109271012CE0622F0E945C09829FFC
:100AB000B001112430E020E0AB01420F531FFA01D6
:100AC000EE0FFF1FE40FF51FE55BFE4F908196FDD3
:100AD00016C02F5F3F4F2C30310571F781110FC0C9
:100AE0001092800082E08093810010928500109225
:100AF0008400B19A80916F00826080936F00E091D2
:100B00006F018E2F90E0FC01EE0FFF1FE80FF91F21
:100B1000E55BFE4F80818064808360E089E00E9415
:100B2000810161E08AE00E94810160E084E10E942D
:100B3000810161E08BE00E94810161E08DE00E9413
:100B4000810161E083E10E94810161E082E10E9414
:100B5000810161E081E10E94810160E08FE00E94FB
:100B6000810161E080E10E94810182E00E94020334
:100B70000E94FA0293E0E92EF12C23E2C22ED12C3E
:100B800037EB232E30E0332E43EAA42E40E0B42E80
:100B900050E0852E50E0952ECAE5D0E021E4209368
:100BA0007C0080917A00806480937A0080917A0042
:100BB00086FDFCCF90917800809179008927982755
:100BC000892790934A01809349018E3E92400CF010
:100BD000D7C061E080E10E9435010E94FA02E1E0A5
:100BE000809185018111E0E0E195F0E0EE58FE4F43
:100BF000848980680E94F4028CE091E00E940D02DA
:100C0000E0918501E23008F0B9C0E150F0E0EE5823
:100C1000FE4F848980680E94F4028CE191E00E947A
:100C20000D024090490150904A01052C000C6608C5
:100C300077084AE0C301B20177FE0EC041E06DE2E1
:100C400082E791E00E94A10266277727CB01641911
:100C50007509860997094AE00E941A0264EF71E05B
:100C600080E090E00E94D70164E670E080E090E0D0
:100C70000E94D70160E08AE00E943501C701019718
:100C8000F1F761E08AE00E943501C6010197F1F7B2
:100C900060E08AE00E943501F1016491F5018491E0
:100CA000E82FF0E0EE0FFF1FE057FF4F8591949182
:100CB00000E412E42FE030E0462F0E94AF046115FB
:100CC00071058105910529F06F5F7F4F8F4F9F4F11
:100CD0009F700E94630826E933E44BE05DE30E94C5
:100CE000C70820E030E040E05FE30E94C7080E94B0
:100CF0002B086093450170934601809347019093C0
:100D0000480167397105810591050CF059C061E012
:100D10008DE00E94350162E370E080E090E00E9487
:100D2000D70160E08DE00E94350161E083E10E941F
:100D3000350160E082E10E94350160E081E10E94BE
:100D4000350110924401109243016090430170906C
:100D50004401FBE56F167104C4F4C3010E948C00CA
:100D600062E070E080E090E00E94D7012FEF621A0D
:100D7000720A7092440160924301E7CFE1E046CFEE
:100D800060E080E10E94350175CFD0934401C093AB
:100D90004301609043017090440177FC73C0C3012C
:100DA0000E948C0062E070E080E090E00E94D70139
:100DB00081E0681A71087092440160924301E9CFA2
:100DC0006759710981099109643671058105910599
:100DD00008F048C060E08DE00E94350161E082E1EA
:100DE0000E94350160E083E10E94350160E081E10D
:100DF0000E9435011092440110924301609043011A
:100E000070904401EBE56E1671048CF4C3010E94EE
:100E10008C006FE070E080E090E00E94D701FFEF6F
:100E20006F1A7F0A7092440160924301E7CFD0931A
:100E30004401C0934301609043017090440177FCEA
:100E400021C0C3010E948C006FE070E080E090E060
:100E50000E94D70121E0621A7108709244016092E9
:100E60004301E9CF60E08DE00E94350161E081E15E
:100E70000E94350160E082E10E94350160E083E17B
:100E80000E9435010E94FA02E1E080918501811102
:100E9000E0E0E195F0E0EE58FE4F848980680E9422
:100EA000F40289E291E00E940D02409045015090C9
:100EB000460160904701709048014AE0C301B201C9
:100EC00077FE0EC041E06DE282E791E00E94A10250
:100ED00066277727CB0164197509860997094AE0C7
:100EE0000E941A0284E391E00E940D0264EF71E017
:100EF00080E090E00E94D7018114910409F44ECE65
:100F00000E9400004BCE809138018C30E8F591E0D2
:100F1000980F9093380180936F0190E0FC01EE0FE1
:100F2000FF1FE80FF91FE55BFE4F88EB9BE0928304
:100F30008183109275011092740184E091E0909386
:100F4000730180937201109276018FEF8093770185
:100F500081E08093780188E08093790187E0809335
:100F60007A0186E080937B0185E080937C0110927A
:100F70007D0110927E0110927F01109280011092EB
:100F8000810181E00C9402038FEF80936F01D1CF38
:100F9000052E97FB1EF400940E94DF0757FD07D033
:100FA0000E94FA0707FC03D04EF40C94DF0750951B
:100FB0004095309521953F4F4F4F5F4F0895909545
:100FC0008095709561957F4F8F4F9F4F08950E9438
:100FD0001C08A59F900DB49F900DA49F800D911D9E
:100FE00011240895B7FF0C94E7070E94E707821BBE
:100FF000930B0895A1E21A2EAA1BBB1BFD010DC085
:10100000AA1FBB1FEE1FFF1FA217B307E407F507B8
:1010100020F0A21BB30BE40BF50B661F771F881F94
:10102000991F1A9469F760957095809590959B012A
:10103000AC01BD01CF010895A29FB001B39FC001D3
:10104000A39F700D811D1124911DB29F700D811DF4
:101050001124911D08950E9432086894B1110C94D6
:10106000C10808950E94A60888F09F5798F0B92FEC
:101070009927B751B0F0E1F0660F771F881F991FCD
:101080001AF0BA95C9F714C0B13091F00E94C008A7
:10109000B1E008950C94C008672F782F8827B85FB7
:1010A00039F0B93FCCF3869577956795B395D9F725
:1010B0003EF490958095709561957F4F8F4F9F4F2F
:1010C0000895E89409C097FB3EF49095809570953B
:1010D00061957F4F8F4F9F4F9923A9F0F92F96E984
:1010E000BB279395F695879577956795B795F111F9
:1010F000F8CFFAF4BB0F11F460FF1BC06F5F7F4F96
:101100008F4F9F4F16C0882311F096E911C07723A7
:1011100021F09EE8872F762F05C0662371F096E8B0
:10112000862F70E060E02AF09A95660F771F881F7F
:10113000DAF7880F9695879597F9089557FD905897
:10114000440F551F59F05F3F71F04795880F97FB8B
:10115000991F61F09F3F79F0879508951216130645
:101160001406551FF2CF4695F1DF08C01616170674
:101170001806991FF1CF86957105610508940895A9
:10118000E894BB2766277727CB0197F908950E943B
:10119000DA080C944B090E943D0938F00E9444097A
:1011A00020F0952311F00C9434090C943A09112481
:1011B0000C94C1080E949E0870F3959FC1F3950F8F
:1011C00050E0551F629FF001729FBB27F00DB11DCB
:1011D000639FAA27F00DB11DAA1F649F6627B00D5B
:1011E000A11D661F829F2227B00DA11D621F739F44
:1011F000B00DA11D621F839FA00D611D221F749F52
:101200003327A00D611D231F849F600D211D822F98
:10121000762F6A2F11249F5750409AF0F1F08823BF
:101220004AF0EE0FFF1FBB1F661F771F881F9150EC
:101230005040A9F79E3F510580F00C9434090C945E
:10124000C1085F3FE4F3983ED4F3869577956795A0
:10125000B795F795E7959F5FC1F7FE2B880F911D16
:101260009695879597F9089597F99F6780E870E0BC
:1012700060E008959FEF80EC089500240A9416160C
:10128000170618060906089500240A941216130674
:10129000140605060895092E0394000C11F4882302
:1012A00052F0BB0F40F4BF2B11F460FF04C06F5F1E
:1012B0007F4F8F4F9F4F0895991B79E004C0991F6E
:1012C000961708F0961B881F7A95C9F780950895A0
:1012D000EE0FFF1F0590F491E02D0994F894FFCFD5
:1012E00000000000A30308010A02090253706F7492
:1012F0006C69676874206973206F6E004272696759
:1013000068746E6573733A200044697374616E6328
:08131000653A2000636D000046
:00000001FF
